{
  "_format": "hh-sol-artifact-1",
  "contractName": "CollateralizedDebt",
  "sourceName": "contracts/CollateralizedDebt.sol",
  "abi": [
    {
      "inputs": [
        {
          "internalType": "contract IConvenience",
          "name": "_convenience",
          "type": "address"
        },
        {
          "internalType": "contract IPair",
          "name": "_pair",
          "type": "address"
        },
        {
          "internalType": "uint256",
          "name": "_maturity",
          "type": "uint256"
        }
      ],
      "stateMutability": "nonpayable",
      "type": "constructor"
    },
    {
      "anonymous": false,
      "inputs": [
        {
          "indexed": true,
          "internalType": "address",
          "name": "owner",
          "type": "address"
        },
        {
          "indexed": true,
          "internalType": "address",
          "name": "approved",
          "type": "address"
        },
        {
          "indexed": true,
          "internalType": "uint256",
          "name": "tokenId",
          "type": "uint256"
        }
      ],
      "name": "Approval",
      "type": "event"
    },
    {
      "anonymous": false,
      "inputs": [
        {
          "indexed": true,
          "internalType": "address",
          "name": "owner",
          "type": "address"
        },
        {
          "indexed": true,
          "internalType": "address",
          "name": "operator",
          "type": "address"
        },
        {
          "indexed": false,
          "internalType": "bool",
          "name": "approved",
          "type": "bool"
        }
      ],
      "name": "ApprovalForAll",
      "type": "event"
    },
    {
      "anonymous": false,
      "inputs": [
        {
          "indexed": true,
          "internalType": "address",
          "name": "from",
          "type": "address"
        },
        {
          "indexed": true,
          "internalType": "address",
          "name": "to",
          "type": "address"
        },
        {
          "indexed": true,
          "internalType": "uint256",
          "name": "tokenId",
          "type": "uint256"
        }
      ],
      "name": "Transfer",
      "type": "event"
    },
    {
      "inputs": [],
      "name": "DOMAIN_SEPARATOR",
      "outputs": [
        {
          "internalType": "bytes32",
          "name": "",
          "type": "bytes32"
        }
      ],
      "stateMutability": "view",
      "type": "function"
    },
    {
      "inputs": [],
      "name": "_PERMIT_TYPEHASH",
      "outputs": [
        {
          "internalType": "bytes32",
          "name": "",
          "type": "bytes32"
        }
      ],
      "stateMutability": "view",
      "type": "function"
    },
    {
      "inputs": [
        {
          "internalType": "address",
          "name": "to",
          "type": "address"
        },
        {
          "internalType": "uint256",
          "name": "id",
          "type": "uint256"
        }
      ],
      "name": "approve",
      "outputs": [],
      "stateMutability": "nonpayable",
      "type": "function"
    },
    {
      "inputs": [],
      "name": "assetDecimals",
      "outputs": [
        {
          "internalType": "uint8",
          "name": "",
          "type": "uint8"
        }
      ],
      "stateMutability": "view",
      "type": "function"
    },
    {
      "inputs": [
        {
          "internalType": "address",
          "name": "",
          "type": "address"
        }
      ],
      "name": "balanceOf",
      "outputs": [
        {
          "internalType": "uint256",
          "name": "",
          "type": "uint256"
        }
      ],
      "stateMutability": "view",
      "type": "function"
    },
    {
      "inputs": [
        {
          "internalType": "address",
          "name": "to",
          "type": "address"
        },
        {
          "internalType": "uint256[]",
          "name": "ids",
          "type": "uint256[]"
        },
        {
          "internalType": "uint112[]",
          "name": "debtsIn",
          "type": "uint112[]"
        },
        {
          "internalType": "uint112[]",
          "name": "collateralsOut",
          "type": "uint112[]"
        },
        {
          "internalType": "bytes",
          "name": "data",
          "type": "bytes"
        }
      ],
      "name": "burn",
      "outputs": [
        {
          "internalType": "uint128",
          "name": "assetIn",
          "type": "uint128"
        },
        {
          "internalType": "uint128",
          "name": "collateralOut",
          "type": "uint128"
        }
      ],
      "stateMutability": "nonpayable",
      "type": "function"
    },
    {
      "inputs": [],
      "name": "collateralDecimals",
      "outputs": [
        {
          "internalType": "uint8",
          "name": "",
          "type": "uint8"
        }
      ],
      "stateMutability": "view",
      "type": "function"
    },
    {
      "inputs": [],
      "name": "convenience",
      "outputs": [
        {
          "internalType": "contract IConvenience",
          "name": "",
          "type": "address"
        }
      ],
      "stateMutability": "view",
      "type": "function"
    },
    {
      "inputs": [
        {
          "internalType": "uint256",
          "name": "id",
          "type": "uint256"
        }
      ],
      "name": "dueOf",
      "outputs": [
        {
          "components": [
            {
              "internalType": "uint112",
              "name": "debt",
              "type": "uint112"
            },
            {
              "internalType": "uint112",
              "name": "collateral",
              "type": "uint112"
            },
            {
              "internalType": "uint32",
              "name": "startBlock",
              "type": "uint32"
            }
          ],
          "internalType": "struct IPair.Due",
          "name": "",
          "type": "tuple"
        }
      ],
      "stateMutability": "view",
      "type": "function"
    },
    {
      "inputs": [
        {
          "internalType": "uint256",
          "name": "",
          "type": "uint256"
        }
      ],
      "name": "getApproved",
      "outputs": [
        {
          "internalType": "address",
          "name": "",
          "type": "address"
        }
      ],
      "stateMutability": "view",
      "type": "function"
    },
    {
      "inputs": [
        {
          "internalType": "address",
          "name": "",
          "type": "address"
        },
        {
          "internalType": "address",
          "name": "",
          "type": "address"
        }
      ],
      "name": "isApprovedForAll",
      "outputs": [
        {
          "internalType": "bool",
          "name": "",
          "type": "bool"
        }
      ],
      "stateMutability": "view",
      "type": "function"
    },
    {
      "inputs": [],
      "name": "maturity",
      "outputs": [
        {
          "internalType": "uint256",
          "name": "",
          "type": "uint256"
        }
      ],
      "stateMutability": "view",
      "type": "function"
    },
    {
      "inputs": [
        {
          "internalType": "address",
          "name": "to",
          "type": "address"
        },
        {
          "internalType": "uint256",
          "name": "id",
          "type": "uint256"
        }
      ],
      "name": "mint",
      "outputs": [],
      "stateMutability": "nonpayable",
      "type": "function"
    },
    {
      "inputs": [],
      "name": "name",
      "outputs": [
        {
          "internalType": "string",
          "name": "",
          "type": "string"
        }
      ],
      "stateMutability": "view",
      "type": "function"
    },
    {
      "inputs": [
        {
          "internalType": "uint256",
          "name": "tokenId",
          "type": "uint256"
        }
      ],
      "name": "nonces",
      "outputs": [
        {
          "internalType": "uint256",
          "name": "",
          "type": "uint256"
        }
      ],
      "stateMutability": "view",
      "type": "function"
    },
    {
      "inputs": [
        {
          "internalType": "uint256",
          "name": "",
          "type": "uint256"
        }
      ],
      "name": "ownerOf",
      "outputs": [
        {
          "internalType": "address",
          "name": "",
          "type": "address"
        }
      ],
      "stateMutability": "view",
      "type": "function"
    },
    {
      "inputs": [],
      "name": "pair",
      "outputs": [
        {
          "internalType": "contract IPair",
          "name": "",
          "type": "address"
        }
      ],
      "stateMutability": "view",
      "type": "function"
    },
    {
      "inputs": [
        {
          "internalType": "address",
          "name": "spender",
          "type": "address"
        },
        {
          "internalType": "uint256",
          "name": "tokenId",
          "type": "uint256"
        },
        {
          "internalType": "uint256",
          "name": "deadline",
          "type": "uint256"
        },
        {
          "internalType": "uint8",
          "name": "v",
          "type": "uint8"
        },
        {
          "internalType": "bytes32",
          "name": "r",
          "type": "bytes32"
        },
        {
          "internalType": "bytes32",
          "name": "s",
          "type": "bytes32"
        }
      ],
      "name": "permit",
      "outputs": [],
      "stateMutability": "nonpayable",
      "type": "function"
    },
    {
      "inputs": [
        {
          "internalType": "address",
          "name": "from",
          "type": "address"
        },
        {
          "internalType": "address",
          "name": "to",
          "type": "address"
        },
        {
          "internalType": "uint256",
          "name": "id",
          "type": "uint256"
        }
      ],
      "name": "safeTransferFrom",
      "outputs": [],
      "stateMutability": "nonpayable",
      "type": "function"
    },
    {
      "inputs": [
        {
          "internalType": "address",
          "name": "from",
          "type": "address"
        },
        {
          "internalType": "address",
          "name": "to",
          "type": "address"
        },
        {
          "internalType": "uint256",
          "name": "id",
          "type": "uint256"
        },
        {
          "internalType": "bytes",
          "name": "data",
          "type": "bytes"
        }
      ],
      "name": "safeTransferFrom",
      "outputs": [],
      "stateMutability": "nonpayable",
      "type": "function"
    },
    {
      "inputs": [
        {
          "internalType": "address",
          "name": "operator",
          "type": "address"
        },
        {
          "internalType": "bool",
          "name": "approved",
          "type": "bool"
        }
      ],
      "name": "setApprovalForAll",
      "outputs": [],
      "stateMutability": "nonpayable",
      "type": "function"
    },
    {
      "inputs": [
        {
          "internalType": "bytes4",
          "name": "interfaceID",
          "type": "bytes4"
        }
      ],
      "name": "supportsInterface",
      "outputs": [
        {
          "internalType": "bool",
          "name": "",
          "type": "bool"
        }
      ],
      "stateMutability": "pure",
      "type": "function"
    },
    {
      "inputs": [],
      "name": "symbol",
      "outputs": [
        {
          "internalType": "string",
          "name": "",
          "type": "string"
        }
      ],
      "stateMutability": "view",
      "type": "function"
    },
    {
      "inputs": [
        {
          "internalType": "uint128",
          "name": "assetIn",
          "type": "uint128"
        },
        {
          "internalType": "bytes",
          "name": "data",
          "type": "bytes"
        }
      ],
      "name": "timeswapPayCallback",
      "outputs": [],
      "stateMutability": "nonpayable",
      "type": "function"
    },
    {
      "inputs": [
        {
          "internalType": "uint256",
          "name": "id",
          "type": "uint256"
        }
      ],
      "name": "tokenURI",
      "outputs": [
        {
          "internalType": "string",
          "name": "",
          "type": "string"
        }
      ],
      "stateMutability": "view",
      "type": "function"
    },
    {
      "inputs": [
        {
          "internalType": "address",
          "name": "from",
          "type": "address"
        },
        {
          "internalType": "address",
          "name": "to",
          "type": "address"
        },
        {
          "internalType": "uint256",
          "name": "id",
          "type": "uint256"
        }
      ],
      "name": "transferFrom",
      "outputs": [],
      "stateMutability": "nonpayable",
      "type": "function"
    }
  ],
  "bytecode": "0x6101a06040527f49ecf333e5b8c95c40fdafc95c1ad136e8914a8fb55e9dc8bb01eaa83a2df9ad610120523480156200003757600080fd5b5060405162003051380380620030518339810160408190526200005a916200017d565b604080518082018252601c81527f54696d657377617020436f6c6c61746572616c697a65642044656274000000006020808301918252835180850190945260018452603160f81b908401528151902060c08190527fc89efdaa54c0f20c7adf612882df0950f5a951637e0307cdcb4c672f298b8bc660e08190524660a052919283929091907f8b73c3c69bb8fe3d512ecc4cf759cc79239f7b179b0ffacaa9a75d522b39400f6200010d81848462000141565b608052610100525050505050606092831b6001600160601b0319908116610140529190921b16610160526101805262000209565b600083838346306040516020016200015e959493929190620001c4565b6040516020818303038152906040528051906020012090509392505050565b60008060006060848603121562000192578283fd5b83516200019f81620001f0565b6020850151909350620001b281620001f0565b80925050604084015190509250925092565b9485526020850193909352604084019190915260608301526001600160a01b0316608082015260a00190565b6001600160a01b03811681146200020657600080fd5b50565b60805160a05160c05160e05161010051610120516101405160601c6101605160601c61018051612d376200031a600039600081816104cd015281816105fd01528181610a5201528181610ce201528181610de601528181610ec501526110000152600081816103c70152818161046d0152818161094c015281816109f201528181610ae101528181610b9701528181610c3f01528181610cc001528181610d9b01528181610e9801528181610fd301526110bd015260008181610621015281816106e801528181610c9301528181610dbc0152610f7f0152600081816108300152610a8a015260006114b5015260006114f7015260006114d6015260006114630152600061148c0152612d376000f3fe608060405234801561001057600080fd5b506004361061018e5760003560e01c80637ac2ff7b116100de578063c2d4160111610097578063e61dfbea11610071578063e61dfbea14610329578063e96cf04614610349578063e985e9c51461036a578063ec9c6c301461037d5761018e565b8063c2d41601146102ee578063c70449bf14610303578063c87b56dd146103165761018e565b80637ac2ff7b1461029d57806395d89b41146102b0578063982aaf6b146102b8578063a22cb465146102c0578063a8aa1b31146102d3578063b88d4fde146102db5761018e565b806320cd4a2b1161014b57806340c10f191161012557806340c10f191461025157806342842e0e146102645780636352211e1461027757806370a082311461028a5761018e565b806320cd4a2b1461022e57806323b872dd146102365780633644e515146102495761018e565b806301ffc9a71461019357806306fdde03146101bc578063081812fc146101d1578063095ea7b3146101f1578063141a468c14610206578063204f83f914610226575b600080fd5b6101a66101a1366004612015565b610385565b6040516101b391906123ca565b60405180910390f35b6101c46103be565b6040516101b39190612496565b6101e46101df366004612154565b61051a565b6040516101b39190612379565b6102046101ff366004611eab565b610535565b005b610219610214366004612154565b6105e4565b6040516101b391906123d5565b6102196105fb565b6101e461061f565b610204610244366004611c7f565b610643565b6102196106ce565b61020461025f366004611eab565b6106dd565b610204610272366004611c7f565b610733565b6101e4610285366004612154565b6107c7565b610219610298366004611c24565b6107e2565b6102046102ab366004611ed6565b6107f4565b6101c4610943565b610219610a88565b6102046102ce366004611e7a565b610aac565b6101e4610adf565b6102046102e9366004611cbf565b610b03565b6102f6610b90565b6040516101b39190612b18565b6102046103113660046120d3565b610c34565b6101c4610324366004612154565b610d47565b61033c610337366004612154565b610e79565b6040516101b391906129f5565b61035c610357366004611d61565b610f71565b6040516101b3929190612a03565b6101a6610378366004611c47565b611096565b6102f66110b6565b60006001600160e01b031982166301ffc9a760e01b14806103b657506001600160e01b031982166380ac58cd60e01b145b90505b919050565b606060006104647f00000000000000000000000000000000000000000000000000000000000000006001600160a01b03166338d52e0f6040518163ffffffff1660e01b815260040160206040518083038186803b15801561041e57600080fd5b505afa158015610432573d6000803e3d6000fd5b505050506040513d601f19601f82011682018060405250810190610456919061204d565b6001600160a01b0316611114565b905060006104c47f00000000000000000000000000000000000000000000000000000000000000006001600160a01b031663d8dfeb456040518163ffffffff1660e01b815260040160206040518083038186803b15801561041e57600080fd5b905081816104f17f00000000000000000000000000000000000000000000000000000000000000006111e7565b604051602001610503939291906122f4565b604051602081830303815290604052925050505b90565b6002602052600090815260409020546001600160a01b031681565b6000818152600160205260409020546001600160a01b03163381148061057e57506001600160a01b038116600090815260036020908152604080832033845290915290205460ff165b6105a35760405162461bcd60e51b815260040161059a9061298b565b60405180910390fd5b806001600160a01b0316836001600160a01b031614156105d55760405162461bcd60e51b815260040161059a9061291a565b6105df838361130a565b505050565b60008181526004602052604081206103b690611371565b7f000000000000000000000000000000000000000000000000000000000000000081565b7f000000000000000000000000000000000000000000000000000000000000000081565b82816001600160a01b03821633148061067257506000818152600260205260409020546001600160a01b031633145b806106a057506001600160a01b038216600090815260036020908152604080832033845290915290205460ff165b6106bc5760405162461bcd60e51b815260040161059a90612967565b6106c7858585611375565b5050505050565b60006106d861145f565b905090565b336001600160a01b037f000000000000000000000000000000000000000000000000000000000000000016146107255760405162461bcd60e51b815260040161059a9061255e565b61072f8282611522565b5050565b82816001600160a01b03821633148061076257506000818152600260205260409020546001600160a01b031633145b8061079057506001600160a01b038216600090815260036020908152604080832033845290915290205460ff165b6107ac5760405162461bcd60e51b815260040161059a90612967565b6106c785858560405180602001604052806000815250611564565b6001602052600090815260409020546001600160a01b031681565b60006020819052908152604090205481565b6000858152600160205260409020546001600160a01b03164285101561082c5760405162461bcd60e51b815260040161059a906125fa565b60007f0000000000000000000000000000000000000000000000000000000000000000888861085a8a61159d565b8960405160200161086f9594939291906123de565b6040516020818303038152906040528051906020012090506000610892826115c5565b905060006108a2828888886115d8565b90506001600160a01b0381166108ca5760405162461bcd60e51b815260040161059a906124e0565b836001600160a01b0316816001600160a01b0316146108fb5760405162461bcd60e51b815260040161059a90612581565b836001600160a01b03168a6001600160a01b0316141561092d5760405162461bcd60e51b815260040161059a90612517565b6109378a8a61130a565b50505050505050505050565b606060006109e97f00000000000000000000000000000000000000000000000000000000000000006001600160a01b03166338d52e0f6040518163ffffffff1660e01b815260040160206040518083038186803b1580156109a357600080fd5b505afa1580156109b7573d6000803e3d6000fd5b505050506040513d601f19601f820116820180604052508101906109db919061204d565b6001600160a01b03166116ce565b90506000610a497f00000000000000000000000000000000000000000000000000000000000000006001600160a01b031663d8dfeb456040518163ffffffff1660e01b815260040160206040518083038186803b1580156109a357600080fd5b90508181610a767f00000000000000000000000000000000000000000000000000000000000000006111e7565b60405160200161050393929190612287565b7f000000000000000000000000000000000000000000000000000000000000000081565b6001600160a01b038216331415610ad55760405162461bcd60e51b815260040161059a90612695565b61072f8282611796565b7f000000000000000000000000000000000000000000000000000000000000000081565b83826001600160a01b038216331480610b3257506000818152600260205260409020546001600160a01b031633145b80610b6057506001600160a01b038216600090815260036020908152604080832033845290915290205460ff165b610b7c5760405162461bcd60e51b815260040161059a90612967565b610b8886868686611564565b505050505050565b60006106d87f00000000000000000000000000000000000000000000000000000000000000006001600160a01b03166338d52e0f6040518163ffffffff1660e01b815260040160206040518083038186803b158015610bee57600080fd5b505afa158015610c02573d6000803e3d6000fd5b505050506040513d601f19601f82011682018060405250810190610c26919061204d565b6001600160a01b0316611805565b336001600160a01b037f00000000000000000000000000000000000000000000000000000000000000001614610c7c5760405162461bcd60e51b815260040161059a9061266d565b6040516349628ae160e11b81526001600160a01b037f000000000000000000000000000000000000000000000000000000000000000016906392c515c290610d10907f0000000000000000000000000000000000000000000000000000000000000000907f000000000000000000000000000000000000000000000000000000000000000090889088908890600401612454565b600060405180830381600087803b158015610d2a57600080fd5b505af1158015610d3e573d6000803e3d6000fd5b50505050505050565b6000818152600160205260409020546060906001600160a01b0316610d7e5760405162461bcd60e51b815260040161059a90612776565b73__$6875d9f6a9255bdcd8cd87160b2954290c$__63b9d5a730837f00000000000000000000000000000000000000000000000000000000000000007f0000000000000000000000000000000000000000000000000000000000000000610de487610e79565b7f00000000000000000000000000000000000000000000000000000000000000006040518663ffffffff1660e01b8152600401610e25959493929190612add565b60006040518083038186803b158015610e3d57600080fd5b505af4158015610e51573d6000803e3d6000fd5b505050506040513d6000823e601f3d908101601f191682016040526103b69190810190612069565b610e81611b48565b604051637558156360e01b81526001600160a01b037f00000000000000000000000000000000000000000000000000000000000000001690637558156390610eef907f0000000000000000000000000000000000000000000000000000000000000000903090600401612a1d565b60006040518083038186803b158015610f0757600080fd5b505afa158015610f1b573d6000803e3d6000fd5b505050506040513d6000823e601f3d908101601f19168201604052610f439190810190611f31565b8281518110610f6257634e487b7160e01b600052603260045260246000fd5b60200260200101519050919050565b600080336001600160a01b037f00000000000000000000000000000000000000000000000000000000000000001614610fbc5760405162461bcd60e51b815260040161059a9061255e565b604051634f719f7960e11b81526001600160a01b037f00000000000000000000000000000000000000000000000000000000000000001690639ee33ef290611036907f0000000000000000000000000000000000000000000000000000000000000000908c9030908d908d908d908d908d90600401612a34565b6040805180830381600087803b15801561104f57600080fd5b505af1158015611063573d6000803e3d6000fd5b505050506040513d601f19601f820116820180604052508101906110879190612126565b90999098509650505050505050565b600360209081526000928352604080842090915290825290205460ff1681565b60006106d87f00000000000000000000000000000000000000000000000000000000000000006001600160a01b031663d8dfeb456040518163ffffffff1660e01b815260040160206040518083038186803b158015610bee57600080fd5b60408051600481526024810182526020810180516001600160e01b03166306fdde0360e01b179052905160609160009182916001600160a01b0386169161115b9190612250565b600060405180830381855afa9150503d8060008114611196576040519150601f19603f3d011682016040523d82523d6000602084013e61119b565b606091505b509150915081156111c357808060200190518101906111ba9190612069565b925050506103b9565b50506040805180820190915260058152642a37b5b2b760d91b602082015292915050565b60608161120c57506040805180820190915260018152600360fc1b60208201526103b9565b8160005b8115611236578061122081612c29565b915061122f9050600a83612bbb565b9150611210565b60008167ffffffffffffffff81111561125f57634e487b7160e01b600052604160045260246000fd5b6040519080825280601f01601f191660200182016040528015611289576020820181803683370190505b5090505b84156113025761129e600183612bcf565b91506112ab600a86612c44565b6112b6906030612ba3565b60f81b8183815181106112d957634e487b7160e01b600052603260045260246000fd5b60200101906001600160f81b031916908160001a9053506112fb600a86612bbb565b945061128d565b949350505050565b600081815260026020908152604080832080546001600160a01b0319166001600160a01b038781169182179092556001909352818420549151859492909116917f8c5be1e5ebec7d5bd14f71427d1e84f3dd0314c0f7b2291e5b200ac8c7c3b92591a45050565b5490565b6001600160a01b03821661139b5760405162461bcd60e51b815260040161059a906127b7565b600081815260016020908152604080832080546001600160a01b0319166001600160a01b0387811691909117909155861683529082905281208054916113e083612c12565b90915550506001600160a01b038216600090815260208190526040812080549161140983612c29565b919050555061141960008261130a565b80826001600160a01b0316846001600160a01b03167fddf252ad1be2c89b69c2b068fc378daa952ba7f163c4a11628f55a4df523b3ef60405160405180910390a4505050565b60007f00000000000000000000000000000000000000000000000000000000000000004614156114b057507f0000000000000000000000000000000000000000000000000000000000000000610517565b61151b7f00000000000000000000000000000000000000000000000000000000000000007f00000000000000000000000000000000000000000000000000000000000000007f00000000000000000000000000000000000000000000000000000000000000006118c2565b9050610517565b61152c82826118fc565b61154860008383604051806020016040528060008152506119d9565b61072f5760405162461bcd60e51b815260040161059a90612814565b61156f848484611375565b61157b848484846119d9565b6115975760405162461bcd60e51b815260040161059a90612622565b50505050565b60008181526004602052604081206115b481611371565b91506115bf81611b0b565b50919050565b60006103b66115d261145f565b83611b14565b60007f7fffffffffffffffffffffffffffffff5d576e7357a4501ddfe92f46681b20a082111561161a5760405162461bcd60e51b815260040161059a906125b8565b8360ff16601b148061162f57508360ff16601c145b61164b5760405162461bcd60e51b815260040161059a90612734565b6000600186868686604051600081526020016040526040516116709493929190612436565b6020604051602081039080840390855afa158015611692573d6000803e3d6000fd5b5050604051601f1901519150506001600160a01b0381166116c55760405162461bcd60e51b815260040161059a906124a9565b95945050505050565b60408051600481526024810182526020810180516001600160e01b03166395d89b4160e01b179052905160609160009182916001600160a01b038616916117159190612250565b600060405180830381855afa9150503d8060008114611750576040519150601f19603f3d011682016040523d82523d6000602084013e611755565b606091505b5091509150811561177457808060200190518101906111ba9190612069565b50506040805180820190915260038152622a25a760e91b602082015292915050565b3360008181526003602090815260408083206001600160a01b038716808552925291829020805460ff191685151517905590519091907f17307eab39ab6107e8899845ad3d59bd9653f200f220920489ca2b5937696c31906117f99085906123ca565b60405180910390a35050565b60408051600481526024810182526020810180516001600160e01b031663313ce56760e01b1790529051600091829182916001600160a01b0386169161184b9190612250565b600060405180830381855afa9150503d8060008114611886576040519150601f19603f3d011682016040523d82523d6000602084013e61188b565b606091505b509150915081801561189f57506020815110155b156118b857808060200190518101906111ba919061216c565b5060129392505050565b600083838346306040516020016118dd95949392919061240a565b6040516020818303038152906040528051906020012090509392505050565b6001600160a01b0382166119225760405162461bcd60e51b815260040161059a906126e4565b6000818152600160205260409020546001600160a01b0316156119575760405162461bcd60e51b815260040161059a90612872565b6001600160a01b038216600090815260208190526040812080549161197b83612c29565b909155505060008181526001602052604080822080546001600160a01b0319166001600160a01b03861690811790915590518392907fddf252ad1be2c89b69c2b068fc378daa952ba7f163c4a11628f55a4df523b3ef908290a45050565b6000833b806119ec576001915050611302565b6060600080876001600160a01b031663150b7a0260e01b338b8a8a604051602401611a1a949392919061238d565b60408051601f198184030181529181526020820180516001600160e01b03166001600160e01b0319909416939093179092529051611a589190612250565b6000604051808303816000865af19150503d8060008114611a95576040519150601f19603f3d011682016040523d82523d6000602084013e611a9a565b606091505b50915091508115611aad57809250611ad5565b805115611abd5780518082602001fd5b60405162461bcd60e51b815260040161059a906128a7565b600083806020019051810190611aeb9190612031565b6001600160e01b031916630a85bd0160e11b149550611302945050505050565b80546001019055565b60008282604051602001611b2992919061226c565b6040516020818303038152906040528051906020012090505b92915050565b604080516060810182526000808252602082018190529181019190915290565b600082601f830112611b78578081fd5b81356020611b8d611b8883612b57565b612b26565b8281528181019085830183850287018401881015611ba9578586fd5b855b85811015611bd0578135611bbe81612cc8565b84529284019290840190600101611bab565b5090979650505050505050565b60008083601f840112611bee578182fd5b50813567ffffffffffffffff811115611c05578182fd5b602083019150836020828501011115611c1d57600080fd5b9250929050565b600060208284031215611c35578081fd5b8135611c4081612c9a565b9392505050565b60008060408385031215611c59578081fd5b8235611c6481612c9a565b91506020830135611c7481612c9a565b809150509250929050565b600080600060608486031215611c93578081fd5b8335611c9e81612c9a565b92506020840135611cae81612c9a565b929592945050506040919091013590565b60008060008060808587031215611cd4578182fd5b8435611cdf81612c9a565b93506020850135611cef81612c9a565b925060408501359150606085013567ffffffffffffffff811115611d11578182fd5b8501601f81018713611d21578182fd5b8035611d2f611b8882612b7b565b818152886020838501011115611d43578384fd5b81602084016020830137908101602001929092525092959194509250565b60008060008060008060a08789031215611d79578384fd5b8635611d8481612c9a565b955060208781013567ffffffffffffffff80821115611da1578687fd5b818a0191508a601f830112611db4578687fd5b8135611dc2611b8882612b57565b81815284810190848601868402860187018f1015611dde578a8bfd5b8a95505b83861015611e00578035835260019590950194918601918601611de2565b509950505060408a0135925080831115611e18578687fd5b611e248b848c01611b68565b965060608a0135925080831115611e39578485fd5b611e458b848c01611b68565b955060808a0135925080831115611e5a578485fd5b5050611e6889828a01611bdd565b979a9699509497509295939492505050565b60008060408385031215611e8c578182fd5b8235611e9781612c9a565b915060208301358015158114611c74578182fd5b60008060408385031215611ebd578182fd5b8235611ec881612c9a565b946020939093013593505050565b60008060008060008060c08789031215611eee578384fd5b8635611ef981612c9a565b955060208701359450604087013593506060870135611f1781612cf2565b9598949750929560808101359460a0909101359350915050565b60006020808385031215611f43578182fd5b825167ffffffffffffffff811115611f59578283fd5b8301601f81018513611f69578283fd5b8051611f77611b8882612b57565b818152838101908385016060808502860187018a1015611f95578788fd5b8795505b848610156120075780828b031215611faf578788fd5b611fb881612b26565b8251611fc381612cc8565b815282880151611fd281612cc8565b8189015260408381015163ffffffff81168114611fed578a8bfd5b908201528452600195909501949286019290810190611f99565b509098975050505050505050565b600060208284031215612026578081fd5b8135611c4081612cb2565b600060208284031215612042578081fd5b8151611c4081612cb2565b60006020828403121561205e578081fd5b8151611c4081612c9a565b60006020828403121561207a578081fd5b815167ffffffffffffffff811115612090578182fd5b8201601f810184136120a0578182fd5b80516120ae611b8882612b7b565b8181528560208385010111156120c2578384fd5b6116c5826020830160208601612be6565b6000806000604084860312156120e7578081fd5b83356120f281612cdd565b9250602084013567ffffffffffffffff81111561210d578182fd5b61211986828701611bdd565b9497909650939450505050565b60008060408385031215612138578182fd5b825161214381612cdd565b6020840151909250611c7481612cdd565b600060208284031215612165578081fd5b5035919050565b60006020828403121561217d578081fd5b8151611c4081612cf2565b6000815180845260208085019450808401835b838110156121c05781516001600160701b03168752958201959082019060010161219b565b509495945050505050565b60008284528282602086013780602084860101526020601f19601f85011685010190509392505050565b6000815180845261220d816020860160208601612be6565b601f01601f19169290920160200192915050565b6001600160701b038082511683528060208301511660208401525063ffffffff60408201511660408301525050565b60008251612262818460208701612be6565b9190910192915050565b61190160f01b81526002810192909252602282015260420190565b60006654532d4344542d60c81b825284516122a9816007850160208901612be6565b8083019050602d60f81b80600783015285516122cc816008850160208a01612be6565b600892019182015283516122e7816009840160208801612be6565b0160090195945050505050565b60007f54696d657377617020436f6c6c61746572616c697a65642044656274202d20008252845161232c81601f850160208901612be6565b80830190506201016960ed1b80601f8301528551612351816022850160208a01612be6565b6022920191820152835161236c816025840160208801612be6565b0160250195945050505050565b6001600160a01b0391909116815260200190565b6001600160a01b03858116825284166020820152604081018390526080606082018190526000906123c0908301846121f5565b9695505050505050565b901515815260200190565b90815260200190565b9485526001600160a01b0393909316602085015260408401919091526060830152608082015260a00190565b9485526020850193909352604084019190915260608301526001600160a01b0316608082015260a00190565b93845260ff9290921660208401526040830152606082015260800190565b600060018060a01b03871682528560208301526001600160801b03851660408301526080606083015261248b6080830184866121cb565b979650505050505050565b600060208252611c4060208301846121f5565b60208082526018908201527f45434453413a20696e76616c6964207369676e61747572650000000000000000604082015260600190565b6020808252601f908201527f4552433732315065726d69743a20496e76616c6964207369676e617475726500604082015260600190565b60208082526027908201527f4552433732315065726d69743a20617070726f76616c20746f2063757272656e6040820152663a1037bbb732b960c91b606082015260800190565b6020808252600990820152682337b93134b23232b760b91b604082015260600190565b6020808252601f908201527f4552433732315065726d69743a20696e76616c6964207369676e617475726500604082015260600190565b60208082526022908201527f45434453413a20696e76616c6964207369676e6174757265202773272076616c604082015261756560f01b606082015260800190565b6020808252600e908201526d14195c9b5a5d08195e1c1a5c995960921b604082015260600190565b6020808252602b908201527f455243373231203a3a205f736166655472616e73666572203a204e6f7420536160408201526a3332902a3930b739b332b960a91b606082015260800190565b6020808252600e908201526d24b73b30b634b21039b2b73232b960911b604082015260600190565b6020808252602f908201527f455243373231203a3a20736574417070726f76616c466f72416c6c203a20417060408201526e383937bb32903a379031b0b63632b960891b606082015260800190565b60208082526030908201527f455243373231203a3a205f6d696e74203a204d696e7420746f2074686520616460408201526f6472657373283029206164647265737360801b606082015260800190565b60208082526022908201527f45434453413a20696e76616c6964207369676e6174757265202776272076616c604082015261756560f01b606082015260800190565b60208082526021908201527f455243373231203a3a20746f6b656e555249203a20446f65736e7420657869736040820152601d60fa1b606082015260800190565b60208082526038908201527f455243373231203a3a205f7472616e73666572203a205472616e73666572207460408201527f6f20746865206164647265737328302920616464726573730000000000000000606082015260800190565b602080825260409082018190527f455243373231203a3a205f736166654d696e74203a205472616e736665722074908201527f6f206e6f6e20455243373231526563656976657220696d706c656d656e746572606082015260800190565b6020808252818101527f455243373231203a3a205f6d696e74203a20416c7265616479206d696e746564604082015260600190565b6020808252604d908201527f455243373231203a3a205f636865636b4f6e455243373231526563656976656460408201527f203a205472616e7366657220746f206e6f6e204552433732315265636569766560608201526c391034b6b83632b6b2b73a32b960991b608082015260a00190565b6020808252602d908201527f455243373231203a3a20617070726f7665203a20417070726f76616c20746f2060408201526c31bab93932b73a1037bbb732b960991b606082015260800190565b6020808252600a90820152692337b9393134b23232b760b11b604082015260600190565b60208082526044908201527f455243373231203a3a20617070726f7665203a20417070726f76652063616c6c60408201527f6572206973206e6f74206f776e6572206e6f7220617070726f76656420666f7260608201526308185b1b60e21b608082015260a00190565b60608101611b428284612221565b6001600160801b0392831681529116602082015260400190565b9182526001600160a01b0316602082015260400190565b8881526001600160a01b03888116602080840191909152908816604083015260e060608301819052875190830181905260009188810191610100850190845b81811015612a8f57845183529383019391830191600101612a73565b50508481036080860152612aa3818a612188565b9250505082810360a0840152612ab98187612188565b905082810360c0840152612ace8185876121cb565b9b9a5050505050505050505050565b8581526001600160a01b0385811660208301528416604082015260e08101612b086060830185612221565b8260c08301529695505050505050565b60ff91909116815260200190565b604051601f8201601f1916810167ffffffffffffffff81118282101715612b4f57612b4f612c84565b604052919050565b600067ffffffffffffffff821115612b7157612b71612c84565b5060209081020190565b600067ffffffffffffffff821115612b9557612b95612c84565b50601f01601f191660200190565b60008219821115612bb657612bb6612c58565b500190565b600082612bca57612bca612c6e565b500490565b600082821015612be157612be1612c58565b500390565b60005b83811015612c01578181015183820152602001612be9565b838111156115975750506000910152565b600081612c2157612c21612c58565b506000190190565b6000600019821415612c3d57612c3d612c58565b5060010190565b600082612c5357612c53612c6e565b500690565b634e487b7160e01b600052601160045260246000fd5b634e487b7160e01b600052601260045260246000fd5b634e487b7160e01b600052604160045260246000fd5b6001600160a01b0381168114612caf57600080fd5b50565b6001600160e01b031981168114612caf57600080fd5b6001600160701b0381168114612caf57600080fd5b6001600160801b0381168114612caf57600080fd5b60ff81168114612caf57600080fdfea264697066735822122060bc97b1d088f3fd0d842a4fdf1319545c1615db91846cc7299850b8ad8f93c564736f6c63430008010033",
  "linkReferences": {
    "contracts/libraries/NFTTokenURIScaffold.sol": {
      "NFTTokenURIScaffold": [
        {
          "length": 20,
          "start": 4250
        }
      ]
    }
  },
  "deployedLinkReferences": {
    "contracts/libraries/NFTTokenURIScaffold.sol": {
      "NFTTokenURIScaffold": [
        {
          "length": 20,
          "start": 3456
        }
      ]
    }
  }
}