{
  "_format": "hh-sol-artifact-1",
  "contractName": "DaiTestToken",
  "sourceName": "contracts/DaiTestToken.sol",
  "abi": [
    {
      "inputs": [
        {
          "internalType": "address",
          "name": "_owner",
          "type": "address"
        }
      ],
      "stateMutability": "nonpayable",
      "type": "constructor"
    },
    {
      "anonymous": false,
      "inputs": [
        {
          "indexed": true,
          "internalType": "address",
          "name": "_owner",
          "type": "address"
        },
        {
          "indexed": true,
          "internalType": "address",
          "name": "_spender",
          "type": "address"
        },
        {
          "indexed": false,
          "internalType": "uint256",
          "name": "_value",
          "type": "uint256"
        }
      ],
      "name": "Approval",
      "type": "event"
    },
    {
      "anonymous": false,
      "inputs": [
        {
          "indexed": true,
          "internalType": "address",
          "name": "_from",
          "type": "address"
        },
        {
          "indexed": true,
          "internalType": "address",
          "name": "_to",
          "type": "address"
        },
        {
          "indexed": false,
          "internalType": "uint256",
          "name": "_value",
          "type": "uint256"
        }
      ],
      "name": "Transfer",
      "type": "event"
    },
    {
      "inputs": [],
      "name": "acceptOwner",
      "outputs": [],
      "stateMutability": "nonpayable",
      "type": "function"
    },
    {
      "inputs": [
        {
          "internalType": "address",
          "name": "",
          "type": "address"
        },
        {
          "internalType": "address",
          "name": "",
          "type": "address"
        }
      ],
      "name": "allowance",
      "outputs": [
        {
          "internalType": "uint256",
          "name": "",
          "type": "uint256"
        }
      ],
      "stateMutability": "view",
      "type": "function"
    },
    {
      "inputs": [
        {
          "internalType": "address",
          "name": "_spender",
          "type": "address"
        },
        {
          "internalType": "uint256",
          "name": "_value",
          "type": "uint256"
        }
      ],
      "name": "approve",
      "outputs": [
        {
          "internalType": "bool",
          "name": "",
          "type": "bool"
        }
      ],
      "stateMutability": "nonpayable",
      "type": "function"
    },
    {
      "inputs": [
        {
          "internalType": "address",
          "name": "",
          "type": "address"
        }
      ],
      "name": "balanceOf",
      "outputs": [
        {
          "internalType": "uint256",
          "name": "",
          "type": "uint256"
        }
      ],
      "stateMutability": "view",
      "type": "function"
    },
    {
      "inputs": [],
      "name": "decimals",
      "outputs": [
        {
          "internalType": "uint8",
          "name": "",
          "type": "uint8"
        }
      ],
      "stateMutability": "view",
      "type": "function"
    },
    {
      "inputs": [],
      "name": "mint",
      "outputs": [],
      "stateMutability": "nonpayable",
      "type": "function"
    },
    {
      "inputs": [
        {
          "internalType": "uint256",
          "name": "_value",
          "type": "uint256"
        }
      ],
      "name": "mint",
      "outputs": [],
      "stateMutability": "nonpayable",
      "type": "function"
    },
    {
      "inputs": [],
      "name": "name",
      "outputs": [
        {
          "internalType": "string",
          "name": "",
          "type": "string"
        }
      ],
      "stateMutability": "view",
      "type": "function"
    },
    {
      "inputs": [],
      "name": "owner",
      "outputs": [
        {
          "internalType": "address",
          "name": "",
          "type": "address"
        }
      ],
      "stateMutability": "view",
      "type": "function"
    },
    {
      "inputs": [],
      "name": "pendingOwner",
      "outputs": [
        {
          "internalType": "address",
          "name": "",
          "type": "address"
        }
      ],
      "stateMutability": "view",
      "type": "function"
    },
    {
      "inputs": [
        {
          "internalType": "address",
          "name": "_pendingOwner",
          "type": "address"
        }
      ],
      "name": "setOwner",
      "outputs": [],
      "stateMutability": "nonpayable",
      "type": "function"
    },
    {
      "inputs": [],
      "name": "symbol",
      "outputs": [
        {
          "internalType": "string",
          "name": "",
          "type": "string"
        }
      ],
      "stateMutability": "view",
      "type": "function"
    },
    {
      "inputs": [],
      "name": "totalSupply",
      "outputs": [
        {
          "internalType": "uint256",
          "name": "",
          "type": "uint256"
        }
      ],
      "stateMutability": "view",
      "type": "function"
    },
    {
      "inputs": [
        {
          "internalType": "address",
          "name": "_to",
          "type": "address"
        },
        {
          "internalType": "uint256",
          "name": "_value",
          "type": "uint256"
        }
      ],
      "name": "transfer",
      "outputs": [
        {
          "internalType": "bool",
          "name": "",
          "type": "bool"
        }
      ],
      "stateMutability": "nonpayable",
      "type": "function"
    },
    {
      "inputs": [
        {
          "internalType": "address",
          "name": "_from",
          "type": "address"
        },
        {
          "internalType": "address",
          "name": "_to",
          "type": "address"
        },
        {
          "internalType": "uint256",
          "name": "_value",
          "type": "uint256"
        }
      ],
      "name": "transferFrom",
      "outputs": [
        {
          "internalType": "bool",
          "name": "",
          "type": "bool"
        }
      ],
      "stateMutability": "nonpayable",
      "type": "function"
    }
  ],
  "bytecode": "0x60a0604052600960f91b60805234801561001857600080fd5b506040516109ea3803806109ea8339810160408190526100379161008b565b6001600160a01b0381166100665760405162461bcd60e51b815260040161005d906100b9565b60405180910390fd5b600080546001600160a01b0319166001600160a01b03929092169190911790556100d7565b60006020828403121561009c578081fd5b81516001600160a01b03811681146100b2578182fd5b9392505050565b6020808252600490820152635a65726f60e01b604082015260600190565b60805160f81c6108f56100f5600039600061044001526108f56000f3fe608060405234801561001057600080fd5b50600436106100f55760003560e01c806370a0823111610097578063a9059cbb11610066578063a9059cbb146101d5578063dd62ed3e146101e8578063e30c3978146101fb578063ebbc496514610203576100f5565b806370a08231146101925780638da5cb5b146101a557806395d89b41146101ba578063a0712d68146101c2576100f5565b806313af4035116100d357806313af40351461014257806318160ddd1461015557806323b872dd1461016a578063313ce5671461017d576100f5565b806306fdde03146100fa578063095ea7b3146101185780631249c58b14610138575b600080fd5b61010261020b565b60405161010f91906107d8565b60405180910390f35b61012b61012636600461076f565b610235565b60405161010f91906107c4565b61014061024b565b005b6101406101503660046106e1565b6102cb565b61015d610346565b60405161010f91906107cf565b61012b610178366004610734565b61034c565b61018561043e565b60405161010f919061086c565b61015d6101a03660046106e1565b610462565b6101ad610474565b60405161010f91906107b0565b610102610483565b6101406101d0366004610798565b6104a2565b61012b6101e336600461076f565b610547565b61015d6101f6366004610702565b610554565b6101ad610571565b610140610580565b6040518060400160405280600e81526020016d2220a4902a22a9aa102a27a5a2a760911b81525081565b60006102423384846105be565b50600192915050565b6103e86002600082825461025f919061087a565b909155505033600090815260036020526040812080546103e8929061028590849061087a565b909155505060405133906000907fddf252ad1be2c89b69c2b068fc378daa952ba7f163c4a11628f55a4df523b3ef906102c1906103e8906107cf565b60405180910390a3565b6000546001600160a01b031633146102fe5760405162461bcd60e51b81526004016102f590610849565b60405180910390fd5b6001600160a01b0381166103245760405162461bcd60e51b81526004016102f59061082b565b600180546001600160a01b0319166001600160a01b0392909216919091179055565b60025481565b6000336001600160a01b0385161480159061038c57506001600160a01b038416600090815260046020908152604080832033845290915290205460001914155b15610429576001600160a01b0384166000908152600460209081526040808320338452909152812080548492906103c4908490610892565b90915550506001600160a01b0384166000818152600460209081526040808320338085529252918290205491519092917f8c5be1e5ebec7d5bd14f71427d1e84f3dd0314c0f7b2291e5b200ac8c7c3b9259161042091906107cf565b60405180910390a35b610434848484610626565b5060019392505050565b7f000000000000000000000000000000000000000000000000000000000000000081565b60036020526000908152604090205481565b6000546001600160a01b031681565b6040518060400160405280600381526020016244414960e81b81525081565b6000546001600160a01b031633146104cc5760405162461bcd60e51b81526004016102f590610849565b80600260008282546104de919061087a565b9091555050336000908152600360205260408120805483929061050290849061087a565b909155505060405133906000907fddf252ad1be2c89b69c2b068fc378daa952ba7f163c4a11628f55a4df523b3ef9061053c9085906107cf565b60405180910390a350565b6000610242338484610626565b600460209081526000928352604080842090915290825290205481565b6001546001600160a01b031681565b6001546001600160a01b031633146105aa5760405162461bcd60e51b81526004016102f590610849565b600080546001600160a01b03191633179055565b6001600160a01b0380841660008181526004602090815260408083209487168084529490915290819020849055517f8c5be1e5ebec7d5bd14f71427d1e84f3dd0314c0f7b2291e5b200ac8c7c3b925906106199085906107cf565b60405180910390a3505050565b6001600160a01b0383166000908152600360205260408120805483929061064e908490610892565b90915550506001600160a01b0382166000908152600360205260408120805483929061067b90849061087a565b92505081905550816001600160a01b0316836001600160a01b03167fddf252ad1be2c89b69c2b068fc378daa952ba7f163c4a11628f55a4df523b3ef8360405161061991906107cf565b80356001600160a01b03811681146106dc57600080fd5b919050565b6000602082840312156106f2578081fd5b6106fb826106c5565b9392505050565b60008060408385031215610714578081fd5b61071d836106c5565b915061072b602084016106c5565b90509250929050565b600080600060608486031215610748578081fd5b610751846106c5565b925061075f602085016106c5565b9150604084013590509250925092565b60008060408385031215610781578182fd5b61078a836106c5565b946020939093013593505050565b6000602082840312156107a9578081fd5b5035919050565b6001600160a01b0391909116815260200190565b901515815260200190565b90815260200190565b6000602080835283518082850152825b81811015610804578581018301518582016040015282016107e8565b818111156108155783604083870101525b50601f01601f1916929092016040019392505050565b6020808252600490820152635a65726f60e01b604082015260600190565b6020808252600990820152682337b93134b23232b760b91b604082015260600190565b60ff91909116815260200190565b6000821982111561088d5761088d6108a9565b500190565b6000828210156108a4576108a46108a9565b500390565b634e487b7160e01b600052601160045260246000fdfea26469706673582212205103089607f6c87ad09d4e180cd116cccdbe5ff95e77ee00fa201f244412213464736f6c63430008010033",
  "linkReferences": {},
  "deployedLinkReferences": {}
}